{
  "_format": "hh-sol-artifact-1",
  "contractName": "CVTBridgeV3",
  "sourceName": "contracts/ethereum/CVTBridgeV3.sol",
  "abi": [
    {
      "inputs": [
        {
          "internalType": "address",
          "name": "_cvtToken",
          "type": "address"
        },
        {
          "internalType": "uint256",
          "name": "_bridgeFee",
          "type": "uint256"
        },
        {
          "internalType": "uint256",
          "name": "_minAmount",
          "type": "uint256"
        },
        {
          "internalType": "address[]",
          "name": "_initialValidators",
          "type": "address[]"
        },
        {
          "internalType": "uint256",
          "name": "_threshold",
          "type": "uint256"
        },
        {
          "internalType": "address",
          "name": "_emergencyController",
          "type": "address"
        }
      ],
      "stateMutability": "nonpayable",
      "type": "constructor"
    },
    {
      "inputs": [],
      "name": "AnomalyDetected",
      "type": "error"
    },
    {
      "inputs": [],
      "name": "CircuitBreakerActive",
      "type": "error"
    },
    {
      "inputs": [],
      "name": "ECDSAInvalidSignature",
      "type": "error"
    },
    {
      "inputs": [
        {
          "internalType": "uint256",
          "name": "length",
          "type": "uint256"
        }
      ],
      "name": "ECDSAInvalidSignatureLength",
      "type": "error"
    },
    {
      "inputs": [
        {
          "internalType": "bytes32",
          "name": "s",
          "type": "bytes32"
        }
      ],
      "name": "ECDSAInvalidSignatureS",
      "type": "error"
    },
    {
      "inputs": [],
      "name": "EmergencyPauseActive",
      "type": "error"
    },
    {
      "inputs": [
        {
          "internalType": "address",
          "name": "owner",
          "type": "address"
        }
      ],
      "name": "OwnableInvalidOwner",
      "type": "error"
    },
    {
      "inputs": [
        {
          "internalType": "address",
          "name": "account",
          "type": "address"
        }
      ],
      "name": "OwnableUnauthorizedAccount",
      "type": "error"
    },
    {
      "inputs": [],
      "name": "ReentrancyGuardReentrantCall",
      "type": "error"
    },
    {
      "inputs": [
        {
          "internalType": "address",
          "name": "token",
          "type": "address"
        }
      ],
      "name": "SafeERC20FailedOperation",
      "type": "error"
    },
    {
      "inputs": [],
      "name": "Unauthorized",
      "type": "error"
    },
    {
      "anonymous": false,
      "inputs": [
        {
          "indexed": true,
          "internalType": "address",
          "name": "recipient",
          "type": "address"
        },
        {
          "indexed": false,
          "internalType": "uint8",
          "name": "sourceChain",
          "type": "uint8"
        },
        {
          "indexed": false,
          "internalType": "bytes",
          "name": "sourceAddress",
          "type": "bytes"
        },
        {
          "indexed": false,
          "internalType": "uint256",
          "name": "amount",
          "type": "uint256"
        },
        {
          "indexed": false,
          "internalType": "uint256",
          "name": "nonce",
          "type": "uint256"
        }
      ],
      "name": "BridgeCompleted",
      "type": "event"
    },
    {
      "anonymous": false,
      "inputs": [
        {
          "indexed": true,
          "internalType": "address",
          "name": "sender",
          "type": "address"
        },
        {
          "indexed": false,
          "internalType": "uint8",
          "name": "targetChain",
          "type": "uint8"
        },
        {
          "indexed": false,
          "internalType": "bytes",
          "name": "targetAddress",
          "type": "bytes"
        },
        {
          "indexed": false,
          "internalType": "uint256",
          "name": "amount",
          "type": "uint256"
        },
        {
          "indexed": false,
          "internalType": "uint256",
          "name": "fee",
          "type": "uint256"
        },
        {
          "indexed": false,
          "internalType": "uint256",
          "name": "nonce",
          "type": "uint256"
        }
      ],
      "name": "BridgeInitiated",
      "type": "event"
    },
    {
      "anonymous": false,
      "inputs": [
        {
          "indexed": false,
          "internalType": "string",
          "name": "method",
          "type": "string"
        },
        {
          "indexed": false,
          "internalType": "uint256",
          "name": "timestamp",
          "type": "uint256"
        }
      ],
      "name": "CircuitBreakerResolved",
      "type": "event"
    },
    {
      "anonymous": false,
      "inputs": [
        {
          "indexed": false,
          "internalType": "string",
          "name": "reason",
          "type": "string"
        },
        {
          "indexed": false,
          "internalType": "uint256",
          "name": "timestamp",
          "type": "uint256"
        },
        {
          "indexed": false,
          "internalType": "uint256",
          "name": "metricValue",
          "type": "uint256"
        }
      ],
      "name": "CircuitBreakerTriggered",
      "type": "event"
    },
    {
      "anonymous": false,
      "inputs": [
        {
          "indexed": true,
          "internalType": "address",
          "name": "controller",
          "type": "address"
        },
        {
          "indexed": false,
          "internalType": "uint256",
          "name": "timestamp",
          "type": "uint256"
        }
      ],
      "name": "EmergencyPauseActivated",
      "type": "event"
    },
    {
      "anonymous": false,
      "inputs": [
        {
          "indexed": true,
          "internalType": "address",
          "name": "controller",
          "type": "address"
        },
        {
          "indexed": false,
          "internalType": "uint256",
          "name": "timestamp",
          "type": "uint256"
        }
      ],
      "name": "EmergencyPauseDeactivated",
      "type": "event"
    },
    {
      "anonymous": false,
      "inputs": [
        {
          "indexed": false,
          "internalType": "uint256",
          "name": "oldFee",
          "type": "uint256"
        },
        {
          "indexed": false,
          "internalType": "uint256",
          "name": "newFee",
          "type": "uint256"
        }
      ],
      "name": "FeeUpdated",
      "type": "event"
    },
    {
      "anonymous": false,
      "inputs": [
        {
          "indexed": true,
          "internalType": "address",
          "name": "previousOwner",
          "type": "address"
        },
        {
          "indexed": true,
          "internalType": "address",
          "name": "newOwner",
          "type": "address"
        }
      ],
      "name": "OwnershipTransferred",
      "type": "event"
    },
    {
      "anonymous": false,
      "inputs": [
        {
          "indexed": false,
          "internalType": "uint256",
          "name": "oldThreshold",
          "type": "uint256"
        },
        {
          "indexed": false,
          "internalType": "uint256",
          "name": "newThreshold",
          "type": "uint256"
        }
      ],
      "name": "ThresholdUpdated",
      "type": "event"
    },
    {
      "anonymous": false,
      "inputs": [
        {
          "indexed": true,
          "internalType": "address",
          "name": "validator",
          "type": "address"
        }
      ],
      "name": "ValidatorAdded",
      "type": "event"
    },
    {
      "anonymous": false,
      "inputs": [
        {
          "indexed": true,
          "internalType": "address",
          "name": "validator",
          "type": "address"
        }
      ],
      "name": "ValidatorRemoved",
      "type": "event"
    },
    {
      "inputs": [],
      "name": "AUTO_RECOVERY_DELAY",
      "outputs": [
        {
          "internalType": "uint256",
          "name": "",
          "type": "uint256"
        }
      ],
      "stateMutability": "view",
      "type": "function"
    },
    {
      "inputs": [],
      "name": "CHAIN_ETHEREUM",
      "outputs": [
        {
          "internalType": "uint8",
          "name": "",
          "type": "uint8"
        }
      ],
      "stateMutability": "view",
      "type": "function"
    },
    {
      "inputs": [],
      "name": "CHAIN_SOLANA",
      "outputs": [
        {
          "internalType": "uint8",
          "name": "",
          "type": "uint8"
        }
      ],
      "stateMutability": "view",
      "type": "function"
    },
    {
      "inputs": [],
      "name": "CHAIN_TON",
      "outputs": [
        {
          "internalType": "uint8",
          "name": "",
          "type": "uint8"
        }
      ],
      "stateMutability": "view",
      "type": "function"
    },
    {
      "inputs": [],
      "name": "MAX_FAILED_SIG_RATE",
      "outputs": [
        {
          "internalType": "uint256",
          "name": "",
          "type": "uint256"
        }
      ],
      "stateMutability": "view",
      "type": "function"
    },
    {
      "inputs": [],
      "name": "MAX_SAME_BLOCK_BRIDGES",
      "outputs": [
        {
          "internalType": "uint256",
          "name": "",
          "type": "uint256"
        }
      ],
      "stateMutability": "view",
      "type": "function"
    },
    {
      "inputs": [],
      "name": "VOLUME_SPIKE_THRESHOLD",
      "outputs": [
        {
          "internalType": "uint256",
          "name": "",
          "type": "uint256"
        }
      ],
      "stateMutability": "view",
      "type": "function"
    },
    {
      "inputs": [],
      "name": "bridgeFee",
      "outputs": [
        {
          "internalType": "uint256",
          "name": "",
          "type": "uint256"
        }
      ],
      "stateMutability": "view",
      "type": "function"
    },
    {
      "inputs": [],
      "name": "bridgeNonce",
      "outputs": [
        {
          "internalType": "uint256",
          "name": "",
          "type": "uint256"
        }
      ],
      "stateMutability": "view",
      "type": "function"
    },
    {
      "inputs": [
        {
          "internalType": "bytes32",
          "name": "",
          "type": "bytes32"
        }
      ],
      "name": "bridgeSignatureCount",
      "outputs": [
        {
          "internalType": "uint256",
          "name": "",
          "type": "uint256"
        }
      ],
      "stateMutability": "view",
      "type": "function"
    },
    {
      "inputs": [
        {
          "internalType": "bytes32",
          "name": "",
          "type": "bytes32"
        },
        {
          "internalType": "address",
          "name": "",
          "type": "address"
        }
      ],
      "name": "bridgeSignatures",
      "outputs": [
        {
          "internalType": "bool",
          "name": "",
          "type": "bool"
        }
      ],
      "stateMutability": "view",
      "type": "function"
    },
    {
      "inputs": [],
      "name": "circuitBreaker",
      "outputs": [
        {
          "internalType": "bool",
          "name": "active",
          "type": "bool"
        },
        {
          "internalType": "bool",
          "name": "emergencyPause",
          "type": "bool"
        },
        {
          "internalType": "uint256",
          "name": "triggeredAt",
          "type": "uint256"
        },
        {
          "internalType": "string",
          "name": "reason",
          "type": "string"
        },
        {
          "internalType": "uint256",
          "name": "validatorApprovals",
          "type": "uint256"
        }
      ],
      "stateMutability": "view",
      "type": "function"
    },
    {
      "inputs": [
        {
          "internalType": "address",
          "name": "recipient",
          "type": "address"
        },
        {
          "internalType": "uint8",
          "name": "sourceChain",
          "type": "uint8"
        },
        {
          "internalType": "bytes",
          "name": "sourceAddress",
          "type": "bytes"
        },
        {
          "internalType": "uint256",
          "name": "amount",
          "type": "uint256"
        },
        {
          "internalType": "uint256",
          "name": "nonce",
          "type": "uint256"
        },
        {
          "internalType": "bytes[]",
          "name": "signatures",
          "type": "bytes[]"
        }
      ],
      "name": "completeBridge",
      "outputs": [],
      "stateMutability": "nonpayable",
      "type": "function"
    },
    {
      "inputs": [],
      "name": "cvtToken",
      "outputs": [
        {
          "internalType": "contract IERC20",
          "name": "",
          "type": "address"
        }
      ],
      "stateMutability": "view",
      "type": "function"
    },
    {
      "inputs": [],
      "name": "emergencyController",
      "outputs": [
        {
          "internalType": "address",
          "name": "",
          "type": "address"
        }
      ],
      "stateMutability": "view",
      "type": "function"
    },
    {
      "inputs": [
        {
          "internalType": "string",
          "name": "reason",
          "type": "string"
        }
      ],
      "name": "emergencyPause",
      "outputs": [],
      "stateMutability": "nonpayable",
      "type": "function"
    },
    {
      "inputs": [],
      "name": "emergencyResume",
      "outputs": [],
      "stateMutability": "nonpayable",
      "type": "function"
    },
    {
      "inputs": [],
      "name": "getCircuitBreakerStatus",
      "outputs": [
        {
          "internalType": "bool",
          "name": "active",
          "type": "bool"
        },
        {
          "internalType": "bool",
          "name": "emergencyPause",
          "type": "bool"
        },
        {
          "internalType": "uint256",
          "name": "triggeredAt",
          "type": "uint256"
        },
        {
          "internalType": "string",
          "name": "reason",
          "type": "string"
        },
        {
          "internalType": "uint256",
          "name": "validatorApprovals",
          "type": "uint256"
        }
      ],
      "stateMutability": "view",
      "type": "function"
    },
    {
      "inputs": [
        {
          "internalType": "uint8",
          "name": "targetChain",
          "type": "uint8"
        },
        {
          "internalType": "bytes",
          "name": "targetAddress",
          "type": "bytes"
        },
        {
          "internalType": "uint256",
          "name": "amount",
          "type": "uint256"
        }
      ],
      "name": "initiateBridge",
      "outputs": [],
      "stateMutability": "payable",
      "type": "function"
    },
    {
      "inputs": [],
      "name": "metrics",
      "outputs": [
        {
          "internalType": "uint256",
          "name": "totalVolume24h",
          "type": "uint256"
        },
        {
          "internalType": "uint256",
          "name": "lastVolumeReset",
          "type": "uint256"
        },
        {
          "internalType": "uint256",
          "name": "failedSignatures1h",
          "type": "uint256"
        },
        {
          "internalType": "uint256",
          "name": "totalSignatures1h",
          "type": "uint256"
        },
        {
          "internalType": "uint256",
          "name": "lastSigReset",
          "type": "uint256"
        },
        {
          "internalType": "uint256",
          "name": "bridgesInBlock",
          "type": "uint256"
        },
        {
          "internalType": "uint256",
          "name": "lastBlockNumber",
          "type": "uint256"
        }
      ],
      "stateMutability": "view",
      "type": "function"
    },
    {
      "inputs": [],
      "name": "minAmount",
      "outputs": [
        {
          "internalType": "uint256",
          "name": "",
          "type": "uint256"
        }
      ],
      "stateMutability": "view",
      "type": "function"
    },
    {
      "inputs": [],
      "name": "owner",
      "outputs": [
        {
          "internalType": "address",
          "name": "",
          "type": "address"
        }
      ],
      "stateMutability": "view",
      "type": "function"
    },
    {
      "inputs": [
        {
          "internalType": "bytes32",
          "name": "",
          "type": "bytes32"
        }
      ],
      "name": "processedBridges",
      "outputs": [
        {
          "internalType": "bool",
          "name": "",
          "type": "bool"
        }
      ],
      "stateMutability": "view",
      "type": "function"
    },
    {
      "inputs": [],
      "name": "renounceOwnership",
      "outputs": [],
      "stateMutability": "nonpayable",
      "type": "function"
    },
    {
      "inputs": [],
      "name": "threshold",
      "outputs": [
        {
          "internalType": "uint256",
          "name": "",
          "type": "uint256"
        }
      ],
      "stateMutability": "view",
      "type": "function"
    },
    {
      "inputs": [
        {
          "internalType": "address",
          "name": "newOwner",
          "type": "address"
        }
      ],
      "name": "transferOwnership",
      "outputs": [],
      "stateMutability": "nonpayable",
      "type": "function"
    },
    {
      "inputs": [],
      "name": "validatorCount",
      "outputs": [
        {
          "internalType": "uint256",
          "name": "",
          "type": "uint256"
        }
      ],
      "stateMutability": "view",
      "type": "function"
    },
    {
      "inputs": [
        {
          "internalType": "address",
          "name": "",
          "type": "address"
        }
      ],
      "name": "validators",
      "outputs": [
        {
          "internalType": "bool",
          "name": "",
          "type": "bool"
        }
      ],
      "stateMutability": "view",
      "type": "function"
    }
  ],
  "bytecode": "0x6040610120815234620003915762001d7590813803806200002081620003ac565b93843982019060c08383031262000391576200003c83620003d2565b6020908185015194838101519060608101519560018060401b03968781116200039157820181601f820112156200039157805197881162000396578760051b9086806200008b818501620003ac565b809b81520192820101928311620003915786809101915b838310620003765750505050620000c160a060808301519201620003d2565b9533156200035e5760009283549260018060a01b031999338b8616178655885160018060a01b0395863391167f8be0079c531659141344cd1fd0a4f28419497f9722a3daafe3b4186f6b6457e08980a3856001988980556101f4608052601460a052611c2060c052600560e052169081156200031c57508215158062000310575b15620002d857858b16156200029457879b6002541617600255600355600491825560055561010097885283985b620001e1575b87875161193c918262000439833960805182818161084b0152610bf6015260a05182818161053a015261102c015260c05182818161097101528181610ced01526112ab015260e05182818161027d015261063a01525181818161030301528181610af60152610c4d0152f35b81518910156200028e5782620001f88a846200040d565b5116156200024b576200024189846200021688999a9b9c866200040d565b51168652600889528986208760ff198254161790556009620002398154620003e7565b9055620003e7565b989796956200016f565b865162461bcd60e51b8152908101869052601960248201527f496e76616c69642076616c696461746f722061646472657373000000000000006044820152606490fd5b62000175565b895162461bcd60e51b8152600481018a9052601c60248201527f496e76616c696420656d657267656e637920636f6e74726f6c6c6572000000006044820152606490fd5b895162461bcd60e51b8152600481018a90526011602482015270125b9d985b1a59081d1a1c995cda1bdb19607a1b6044820152606490fd5b50845183111562000142565b62461bcd60e51b8152600481018a9052601960248201527f496e76616c69642043565420746f6b656e2061646472657373000000000000006044820152606490fd5b8551631e4fbdf760e01b815260006004820152602490fd5b81906200038384620003d2565b8152019101908690620000a2565b600080fd5b634e487b7160e01b600052604160045260246000fd5b6040519190601f01601f191682016001600160401b038111838210176200039657604052565b51906001600160a01b03821682036200039157565b6000198114620003f75760010190565b634e487b7160e01b600052601160045260246000fd5b8051821015620004225760209160051b010190565b634e487b7160e01b600052603260045260246000fdfe608080604052600436101561001357600080fd5b60003560e01c90816308d1aa7a14611448575080630f43a6771461142a57806316efd941146113ed5780631d831aea146113d15780631f87a250146113b357806342cde4e81461139557806345c05f44146113435780635dfd6a8314610d105780636bd98b4514610cd5578063715018a614610c7c5780637a936beb14610c3757806382b12dd714610c195780638c89a04d14610bde5780638da5cb5b14610bb557806393c87f0314610ae35780639b2cb5d814610ac5578063a04748f614610a74578063a085646614610a4b578063a2845a4a14610a2f578063a8eb4e561461055d578063ad063d9814610522578063c582323b146104f1578063cf5b4fd5146102cc578063d7e6016a146102a0578063e4e65b9c14610265578063eb8c8d4114610225578063f2fde38b146101975763fa52c7d81461015357600080fd5b34610192576020366003190112610192576001600160a01b036101746115ce565b166000526008602052602060ff604060002054166040519015158152f35b600080fd5b34610192576020366003190112610192576101b06115ce565b6101b8611612565b6001600160a01b0390811690811561020c57600054826bffffffffffffffffffffffff60a01b821617600055167f8be0079c531659141344cd1fd0a4f28419497f9722a3daafe3b4186f6b6457e0600080a3005b604051631e4fbdf760e01b815260006004820152602490fd5b3461019257600036600319011261019257600c54600d5490610261600f5461024b6114be565b604051948460ff80889760081c1691168661156a565b0390f35b346101925760003660031901126101925760206040517f00000000000000000000000000000000000000000000000000000000000000008152f35b3461019257602036600319011261019257600435600052600b6020526020604060002054604051908152f35b34610192576020806003193601126101925767ffffffffffffffff600435818111610192576102ff9036906004016115e4565b90917f00000000000000000000000000000000000000000000000000000000000000006001600160a01b031633036104e05761010061ff0019600c541617600c5581116104ca57610351600e54611462565b601f8111610478575b50600092601f82116001146103fa57816000805160206118e7833981519152946000916103ef575b508260011b906000198460031b1c191617600e555b42600d556040514281527f9506e519f3e4ce17dda1136d3ba3d3465dc873c49a6191e0fd209f33959a00cd823392a26103dd604051938493606085526060850191611680565b904290830152600060408301520390a1005b905083013585610382565b601f19821693600e6000526000805160206118c78339815191529060005b8681106104615750836000805160206118e78339815191529610610447575b5050600182811b01600e55610397565b840135600019600385901b60f8161c191690558480610437565b909183600181928589013581550193019101610418565b600e6000526000805160206118c7833981519152601f830160051c8101918584106104c0575b601f0160051c01905b8181106104b4575061035a565b600081556001016104a7565b909150819061049e565b634e487b7160e01b600052604160045260246000fd5b6040516282b42960e81b8152600490fd5b34610192576020366003190112610192576004356000526007602052602060ff604060002054166040519015158152f35b346101925760003660031901126101925760206040517f00000000000000000000000000000000000000000000000000000000000000008152f35b606080600319360112610192576004359060ff82168092036101925767ffffffffffffffff90602480358381116101925761059c9036906004016115e4565b9160443594600c805460ff8160081c16610a1d5760ff8116610969575b506105c2611725565b600454871061092e5760035434106108f757600288116108bc57601254620151808101809111610884574210156108ae575b60115461060360125442611899565b90600182018092116108995790610619916118a6565b80159081159182610846575b50506107d85760175443036107ca575b6016547f0000000000000000000000000000000000000000000000000000000000000000111561075057506002546040516323b872dd60e01b6020820152338482015230604482015260648082018990528152926001600160a01b03919091169160a08401919082118483101761073c5750926106df7fda9f479be5a9fd701217c27a134d582d907c1f62877dfb679066e8ded51837789593610706936107259a966040526116bd565b600654926106ec846116ae565b60065560405194855260a0602086015260a0850191611680565b93856040840152349083015260808201528033930390a26011546116a1565b6011556107336016546116ae565b60165560018055005b634e487b7160e01b60009081526041600452fd5b60a0866000805160206118e783398151915292600160ff1982541617905542600d55610785610780600e54611462565b61163e565b601654600f604051928084528301526e53616d652d626c6f636b207370616d60881b60808301524260208301526040820152a16040516326f0073b60e01b8152600490fd5b600060165543601755610635565b60a086886000805160206118e783398151915293600160ff1982541617815542600d55610809610780600e54611462565b604051928084528301526b566f6c756d65207370696b6560a01b60808301524260208301526040820152a16040516326f0073b60e01b8152600490fd5b9091507f0000000000000000000000000000000000000000000000000000000000000000808302928304141715610884576064900487118980610625565b83634e487b7160e01b60005260116004526000fd5b84634e487b7160e01b60005260116004526000fd5b6000601155426012556105f4565b60405162461bcd60e51b8152602060048201526014818501527324b73b30b634b2103a30b933b2ba1031b430b4b760611b6044820152606490fd5b60405162461bcd60e51b8152602060048201526010818501526f496e73756666696369656e742066656560801b6044820152606490fd5b60405162461bcd60e51b81526020600482015260148185015273416d6f756e742062656c6f77206d696e696d756d60601b6044820152606490fd5b610996600d547f0000000000000000000000000000000000000000000000000000000000000000906116a1565b4210610a085760ff191681556000600f557fa482005984fd53f868758093f4420d1f9a7457d4b0124178c04f596829d3689a604051806109ff4282919060408352600d60408401526c4175746f2d7265636f7665727960981b6060840152602060808401930152565b0390a1886105b9565b604051600162fc891960e01b03198152600490fd5b60405163909b191760e01b8152600490fd5b3461019257600036600319011261019257602060405160028152f35b34610192576000366003190112610192576002546040516001600160a01b039091168152602090f35b346101925760003660031901126101925760e0601154601254601354601454601554906016549260175494604051968752602087015260408601526060850152608084015260a083015260c0820152f35b34610192576000366003190112610192576020600454604051908152f35b34610192576000366003190112610192577f00000000000000000000000000000000000000000000000000000000000000006001600160a01b031633036104e05761ffff19600c5416600c556000600f556040514281527fdb5c0bc39850eb0ddb99fae67eecd7ee594120d92d1c0db6c3252252a4fc335660203392a27fa482005984fd53f868758093f4420d1f9a7457d4b0124178c04f596829d3689a6080604051604081526012604082015271456d657267656e6379206f7665727269646560701b6060820152426020820152a1005b34610192576000366003190112610192576000546040516001600160a01b039091168152602090f35b346101925760003660031901126101925760206040517f00000000000000000000000000000000000000000000000000000000000000008152f35b34610192576000366003190112610192576020600354604051908152f35b34610192576000366003190112610192576040517f00000000000000000000000000000000000000000000000000000000000000006001600160a01b03168152602090f35b3461019257600036600319011261019257610c95611612565b600080546001600160a01b0319811682556001600160a01b03167f8be0079c531659141344cd1fd0a4f28419497f9722a3daafe3b4186f6b6457e08280a3005b346101925760003660031901126101925760206040517f00000000000000000000000000000000000000000000000000000000000000008152f35b346101925760c036600319011261019257610d296115ce565b60ff60243516602435036101925760443567ffffffffffffffff811161019257610d579036906004016115e4565b9067ffffffffffffffff60a435116101925736602360a4350112156101925767ffffffffffffffff60a43560040135116101925736602460a4356004013560051b60a43501011161019257600c5460ff8160081c16610a1d5760ff81166112a3575b5033600052600860205260ff604060002054161561126c57610dd9611725565b604051606084901b6bffffffffffffffffffffffff1916602082015260243560f81b6001600160f81b0319166034820152828260358301376064356035848301015260843560558483010152610e3c60758285810103605581018452018261149c565b6020815191012080600052600760205260ff604060002054166112275760007f19457468657265756d205369676e6564204d6573736167653a0a33320000000060005281601c52603c60002060005b60a4356004013581106110f9575050601554610e10810181116110d057610e10014210156110e6575b610ec660a435600401356014546116a1565b80601455610ee5610edd8360a43560040135611899565b6013546116a1565b9081601355600a811161100e575b505060055411610fc95760005260076020526040600020600160ff1982541617905560018060a01b03918260025416926040519463a9059cbb60e01b60208701521693846024820152606435604482015260448152608081019080821067ffffffffffffffff8311176104ca577f5f51b452820c551f2cbe44413543052e25c801fa11322cd25e9d3ce56d27b1aa94610f8e926040526116bd565b610fb060405192839260ff602435168452608060208501526080840191611680565b606435604083015260843560608301520390a260018055005b60405162461bcd60e51b815260206004820152601d60248201527f496e73756666696369656e742076616c6964207369676e6174757265730000006044820152606490fd5b6064820291808304606414901517156110d05761102a916118a6565b7f000000000000000000000000000000000000000000000000000000000000000081116110575780610ef3565b60a06000805160206118e783398151915291600160ff19600c541617600c5542600d55611088610780600e54611462565b604051906060825260126060830152715369676e6174757265206661696c7572657360701b60808301524260208301526040820152a16040516326f0073b60e01b8152600490fd5b634e487b7160e01b600052601160045260246000fd5b6000601355600060145542601555610eb4565b60248160051b60a43501013560421960a4353603018112156101925767ffffffffffffffff60248260a435010135116101925760a435810160248101353603604490910113610192576040519061116260a435820160240135601f01601f19166020018361149c565b60a4358101602481013580845236910160440111610192576111b59160006020602484816111ac9660a43501013560448260a43501018487013760a4350101358301015284611748565b90929192611814565b6001600160a01b031660008181526008602052604090205460ff169081611200575b506111eb575b6111e6906116ae565b610e8b565b916111f86111e6916116ae565b9290506111dd565b905084600052600a60205260406000209060005260205260ff6040600020541615886111d7565b60405162461bcd60e51b815260206004820152601860248201527f42726964676520616c72656164792070726f63657373656400000000000000006044820152606490fd5b60405162461bcd60e51b815260206004820152600f60248201526e2737ba1030903b30b634b230ba37b960891b6044820152606490fd5b6112d0600d547f0000000000000000000000000000000000000000000000000000000000000000906116a1565b4210610a085760ff1916600c556000600f557fa482005984fd53f868758093f4420d1f9a7457d4b0124178c04f596829d3689a6040518061133a4282919060408352600d60408401526c4175746f2d7265636f7665727960981b6060840152602060808401930152565b0390a183610db9565b34610192576040366003190112610192576024356001600160a01b0381169081900361019257600435600052600a602052604060002090600052602052602060ff604060002054166040519015158152f35b34610192576000366003190112610192576020600554604051908152f35b34610192576000366003190112610192576020600654604051908152f35b3461019257600036600319011261019257602060405160018152f35b3461019257600036600319011261019257600c54600d54906102616114106114be565b600f5490604051948460ff80889760081c1691168661156a565b34610192576000366003190112610192576020600954604051908152f35b346101925760003660031901126101925780600060209252f35b90600182811c92168015611492575b602083101461147c57565b634e487b7160e01b600052602260045260246000fd5b91607f1691611471565b90601f8019910116810190811067ffffffffffffffff8211176104ca57604052565b60405190600082600e54916114d283611462565b8083529260019081811690811561154857506001146114fb575b506114f99250038361149c565b565b600e600090815291506000805160206118c78339815191525b84831061152d57506114f99350508101602001386114ec565b81935090816020925483858a01015201910190918592611514565b9050602092506114f994915060ff191682840152151560051b820101386114ec565b959493929015158652602091151582870152604086015260a060608601528151918260a087015260005b8381106115ba5750505060c08160008260809488010152601f8019910116850101930152565b81810183015187820160c001528201611594565b600435906001600160a01b038216820361019257565b9181601f840112156101925782359167ffffffffffffffff8311610192576020838186019501011161019257565b6000546001600160a01b0316330361162657565b60405163118cdaa760e01b8152336004820152602490fd5b601f81116116495750565b6000600e8152601f6000805160206118c7833981519152920160051c8201915b82811061167557505050565b818155600101611669565b908060209392818452848401376000828201840152601f01601f1916010190565b919082018092116110d057565b60001981146110d05760010190565b906000602091828151910182855af115611719576000513d61171057506001600160a01b0381163b155b6116ee5750565b604051635274afe760e01b81526001600160a01b039091166004820152602490fd5b600114156116e7565b6040513d6000823e3d90fd5b600260015414611736576002600155565b604051633ee5aeb560e01b8152600490fd5b81519190604183036117795761177292506020820151906060604084015193015160001a90611784565b9192909190565b505060009160029190565b91907f7fffffffffffffffffffffffffffffff5d576e7357a4501ddfe92f46681b20a0841161180857926020929160ff608095604051948552168484015260408301526060820152600092839182805260015afa156117fc5780516001600160a01b038116156117f357918190565b50809160019190565b604051903d90823e3d90fd5b50505060009160039190565b60048110156118835780611826575050565b600181036118405760405163f645eedf60e01b8152600490fd5b600281036118615760405163fce698f760e01b815260048101839052602490fd5b60031461186b5750565b602490604051906335e2f38360e21b82526004820152fd5b634e487b7160e01b600052602160045260246000fd5b919082039182116110d057565b81156118b0570490565b634e487b7160e01b600052601260045260246000fdfebb7b4a454dc3493923482f07822329ed19e8244eff582cc204f8554c3620c3fd523ad613567fbc3e5ab031387463d6181666216d2aff6391c50871593021ef1ea2646970667358221220bd3d0a63482e9d95b1c089b381143770f00937de452a0e65f981931d3db404a064736f6c63430008140033",
  "linkReferences": {},
  "deployedLinkReferences": {}
}