{
  "_format": "hh-sol-artifact-1",
  "contractName": "EmergencyMultiSig",
  "sourceName": "contracts/ethereum/EmergencyMultiSig.sol",
  "abi": [
    {
      "inputs": [
        {
          "internalType": "address",
          "name": "_signer1",
          "type": "address"
        },
        {
          "internalType": "address",
          "name": "_signer2",
          "type": "address"
        },
        {
          "internalType": "address",
          "name": "_signer3",
          "type": "address"
        }
      ],
      "stateMutability": "nonpayable",
      "type": "constructor"
    },
    {
      "anonymous": false,
      "inputs": [
        {
          "indexed": true,
          "internalType": "uint256",
          "name": "proposalId",
          "type": "uint256"
        },
        {
          "indexed": false,
          "internalType": "enum EmergencyMultiSig.EmergencyAction",
          "name": "action",
          "type": "uint8"
        },
        {
          "indexed": false,
          "internalType": "address",
          "name": "targetContract",
          "type": "address"
        }
      ],
      "name": "EmergencyActionExecuted",
      "type": "event"
    },
    {
      "anonymous": false,
      "inputs": [
        {
          "indexed": true,
          "internalType": "uint256",
          "name": "proposalId",
          "type": "uint256"
        },
        {
          "indexed": false,
          "internalType": "enum EmergencyMultiSig.EmergencyAction",
          "name": "action",
          "type": "uint8"
        },
        {
          "indexed": false,
          "internalType": "address",
          "name": "targetContract",
          "type": "address"
        },
        {
          "indexed": false,
          "internalType": "uint256",
          "name": "executionTime",
          "type": "uint256"
        }
      ],
      "name": "EmergencyProposalCreated",
      "type": "event"
    },
    {
      "anonymous": false,
      "inputs": [
        {
          "indexed": true,
          "internalType": "uint256",
          "name": "proposalId",
          "type": "uint256"
        },
        {
          "indexed": true,
          "internalType": "address",
          "name": "signer",
          "type": "address"
        },
        {
          "indexed": false,
          "internalType": "uint8",
          "name": "signatureCount",
          "type": "uint8"
        }
      ],
      "name": "EmergencyProposalSigned",
      "type": "event"
    },
    {
      "inputs": [],
      "name": "REQUIRED_SIGNATURES",
      "outputs": [
        {
          "internalType": "uint256",
          "name": "",
          "type": "uint256"
        }
      ],
      "stateMutability": "view",
      "type": "function"
    },
    {
      "inputs": [],
      "name": "TIME_LOCK_DELAY",
      "outputs": [
        {
          "internalType": "uint256",
          "name": "",
          "type": "uint256"
        }
      ],
      "stateMutability": "view",
      "type": "function"
    },
    {
      "inputs": [
        {
          "internalType": "uint256",
          "name": "proposalId",
          "type": "uint256"
        }
      ],
      "name": "cancelProposal",
      "outputs": [],
      "stateMutability": "nonpayable",
      "type": "function"
    },
    {
      "inputs": [
        {
          "internalType": "enum EmergencyMultiSig.EmergencyAction",
          "name": "action",
          "type": "uint8"
        },
        {
          "internalType": "address",
          "name": "targetContract",
          "type": "address"
        },
        {
          "internalType": "bytes",
          "name": "callData",
          "type": "bytes"
        }
      ],
      "name": "createEmergencyProposal",
      "outputs": [
        {
          "internalType": "uint256",
          "name": "proposalId",
          "type": "uint256"
        }
      ],
      "stateMutability": "nonpayable",
      "type": "function"
    },
    {
      "inputs": [
        {
          "internalType": "uint256",
          "name": "proposalId",
          "type": "uint256"
        }
      ],
      "name": "executeEmergencyProposal",
      "outputs": [],
      "stateMutability": "nonpayable",
      "type": "function"
    },
    {
      "inputs": [
        {
          "internalType": "uint256",
          "name": "proposalId",
          "type": "uint256"
        }
      ],
      "name": "getProposal",
      "outputs": [
        {
          "internalType": "enum EmergencyMultiSig.EmergencyAction",
          "name": "action",
          "type": "uint8"
        },
        {
          "internalType": "address",
          "name": "targetContract",
          "type": "address"
        },
        {
          "internalType": "uint256",
          "name": "createdAt",
          "type": "uint256"
        },
        {
          "internalType": "uint256",
          "name": "executionTime",
          "type": "uint256"
        },
        {
          "internalType": "bool",
          "name": "executed",
          "type": "bool"
        },
        {
          "internalType": "uint8",
          "name": "signatureCount",
          "type": "uint8"
        }
      ],
      "stateMutability": "view",
      "type": "function"
    },
    {
      "inputs": [
        {
          "internalType": "uint256",
          "name": "proposalId",
          "type": "uint256"
        }
      ],
      "name": "hasConsensus",
      "outputs": [
        {
          "internalType": "bool",
          "name": "",
          "type": "bool"
        }
      ],
      "stateMutability": "view",
      "type": "function"
    },
    {
      "inputs": [
        {
          "internalType": "uint256",
          "name": "proposalId",
          "type": "uint256"
        },
        {
          "internalType": "address",
          "name": "signer",
          "type": "address"
        }
      ],
      "name": "hasSigned",
      "outputs": [
        {
          "internalType": "bool",
          "name": "",
          "type": "bool"
        }
      ],
      "stateMutability": "view",
      "type": "function"
    },
    {
      "inputs": [],
      "name": "proposalCount",
      "outputs": [
        {
          "internalType": "uint256",
          "name": "",
          "type": "uint256"
        }
      ],
      "stateMutability": "view",
      "type": "function"
    },
    {
      "inputs": [
        {
          "internalType": "uint256",
          "name": "",
          "type": "uint256"
        }
      ],
      "name": "proposals",
      "outputs": [
        {
          "internalType": "uint256",
          "name": "id",
          "type": "uint256"
        },
        {
          "internalType": "enum EmergencyMultiSig.EmergencyAction",
          "name": "action",
          "type": "uint8"
        },
        {
          "internalType": "address",
          "name": "targetContract",
          "type": "address"
        },
        {
          "internalType": "bytes",
          "name": "callData",
          "type": "bytes"
        },
        {
          "internalType": "uint256",
          "name": "createdAt",
          "type": "uint256"
        },
        {
          "internalType": "uint256",
          "name": "executionTime",
          "type": "uint256"
        },
        {
          "internalType": "bool",
          "name": "executed",
          "type": "bool"
        },
        {
          "internalType": "uint8",
          "name": "signatureCount",
          "type": "uint8"
        }
      ],
      "stateMutability": "view",
      "type": "function"
    },
    {
      "inputs": [
        {
          "internalType": "uint256",
          "name": "proposalId",
          "type": "uint256"
        }
      ],
      "name": "signProposal",
      "outputs": [],
      "stateMutability": "nonpayable",
      "type": "function"
    },
    {
      "inputs": [],
      "name": "signer1",
      "outputs": [
        {
          "internalType": "address",
          "name": "",
          "type": "address"
        }
      ],
      "stateMutability": "view",
      "type": "function"
    },
    {
      "inputs": [],
      "name": "signer2",
      "outputs": [
        {
          "internalType": "address",
          "name": "",
          "type": "address"
        }
      ],
      "stateMutability": "view",
      "type": "function"
    },
    {
      "inputs": [],
      "name": "signer3",
      "outputs": [
        {
          "internalType": "address",
          "name": "",
          "type": "address"
        }
      ],
      "stateMutability": "view",
      "type": "function"
    }
  ],
  "bytecode": "0x60e0346200023457601f6200120e38819003918201601f191683019291906001600160401b0384118385101762000239578160609284926040968752833981010312620002345762000051816200024f565b906200006d8362000065602084016200024f565b92016200024f565b916001600160a01b038082168015620001fe57818416918215620001c8578516908115620001925782811415928362000186575b50826200017a575b505015620001365760805260a05260c05251610fa9908162000265823960805181818160fd015281816102b2015281816104e601528181610537015261089e015260a0518181816101ab0152818161033e015281816104a1015281816108110152610b5e015260c0518181816101800152818161031301528181610408015281816107e60152610b2c0152f35b835162461bcd60e51b815260206004820152601660248201527f5369676e657273206d75737420626520756e69717565000000000000000000006044820152606490fd5b141590503880620000a9565b821415925038620000a1565b865162461bcd60e51b815260206004820152600f60248201526e496e76616c6964207369676e65723360881b6044820152606490fd5b865162461bcd60e51b815260206004820152600f60248201526e24b73b30b634b21039b4b3b732b91960891b6044820152606490fd5b855162461bcd60e51b815260206004820152600f60248201526e496e76616c6964207369676e65723160881b6044820152606490fd5b600080fd5b634e487b7160e01b600052604160045260246000fd5b51906001600160a01b0382168203620002345756fe608080604052600436101561001357600080fd5b60003560e01c908163013cf08b14610b8c575080630ac69923146108385780632d1f483d1461051557806334107282146104d057806338c0ac5f1461048b5780633947c5b0146104375780633eeb92f6146103f2578063709df8d9146103835780639ac18b1914610367578063ab2730161461028e578063c7f758a8146101f2578063da35c664146101d4578063e0a8f6f5146100dc5763fcecc738146100b957600080fd5b346100d75760003660031901126100d75760206040516202a3008152f35b600080fd5b346100d75760203660031901126100d75760043561013460018060a01b03807f00000000000000000000000000000000000000000000000000000000000000001633149081156101a8575b811561017c575b50610d94565b80151580610170575b61014690610dd8565b600052600060205260056040600020016001815461016760ff821615610e24565b60ff1916179055005b5060015481111561013d565b90507f00000000000000000000000000000000000000000000000000000000000000001633148361012e565b337f00000000000000000000000000000000000000000000000000000000000000008216149150610127565b346100d75760003660031901126100d7576020600154604051908152f35b346100d75760203660031901126100d75760043580151580610282575b61021890610dd8565b600052600060205260c06040600020600181015490600381015490600481015460ff6007816005850154169301541692604051946102598660ff8316610d5b565b60081c6001600160a01b03166020860152604085015260608401521515608083015260a0820152f35b5060015481111561020f565b346100d75760203660031901126100d7576103016004356102e860018060a01b03807f000000000000000000000000000000000000000000000000000000000000000016331490811561033b575b811561030f5750610d94565b80151580610303575b6102fa90610dd8565b3390610e70565b005b506001548111156102f1565b90507f00000000000000000000000000000000000000000000000000000000000000001633148461012e565b337f000000000000000000000000000000000000000000000000000000000000000082161491506102dc565b346100d75760003660031901126100d757602060405160028152f35b346100d75760403660031901126100d75760043561039f610d7e565b90801515806103e6575b6103b290610dd8565b600052600060205260066040600020019060018060a01b0316600052602052602060ff604060002054166040519015158152f35b506001548111156103a9565b346100d75760003660031901126100d7576040517f00000000000000000000000000000000000000000000000000000000000000006001600160a01b03168152602090f35b346100d75760203660031901126100d7576004358015158061047f575b61045d90610dd8565b60005260006020526020600260ff600760406000200154161015604051908152f35b50600154811115610454565b346100d75760003660031901126100d7576040517f00000000000000000000000000000000000000000000000000000000000000006001600160a01b03168152602090f35b346100d75760003660031901126100d7576040517f00000000000000000000000000000000000000000000000000000000000000006001600160a01b03168152602090f35b346100d7576020806003193601126100d757600435906001600160a01b0390337f0000000000000000000000000000000000000000000000000000000000000000831614801561080d575b80156107e2575b61057090610d94565b821515806107d6575b61058290610dd8565b8260005260008152604060002060058101908154916105a460ff841615610e24565b600260ff600784015416106107835760048201544210610746576001908160ff198095161790558481830193600285549401906040519360009280546105e981610cff565b9381841691821561072f5750506001146106f1575b505050916000809492828295039360081c165af13d156106ec573d67ffffffffffffffff81116106d6576040519061063f601f8201601f1916860183610d39565b81526000843d92013e5b1561069157916040917fa4ebf12389ddc4d7db8c3543c255b9368768ae2553560bba93342188e57ce8809354918351926106868460ff8316610d5b565b60081c1690820152a2005b60405162461bcd60e51b815260048101839052601760248201527f456d657267656e637920616374696f6e206661696c65640000000000000000006044820152606490fd5b634e487b7160e01b600052604160045260246000fd5b610649565b909192506000528660002090876000925b84841061071a575050509083019050600082846105fe565b8054878501528a955092019188908201610702565b1687525050508015150283019050600082846105fe565b60405162461bcd60e51b8152600481018590526015602482015274151a5b594b5b1bd8dac81b9bdd08195e1c1a5c9959605a1b6044820152606490fd5b60405162461bcd60e51b815260048101859052602560248201527f496e73756666696369656e74207369676e61747572657320286e65656420322d6044820152646f662d332960d81b6064820152608490fd5b50600154831115610579565b50337f0000000000000000000000000000000000000000000000000000000000000000831614610567565b50817f0000000000000000000000000000000000000000000000000000000000000000163314610560565b346100d75760603660031901126100d757600560043510156100d75761085c610d7e565b67ffffffffffffffff80604435116100d7573660236044350112156100d75760443560040135116100d757366024604435600401356044350101116100d757337f00000000000000000000000000000000000000000000000000000000000000006001600160a01b0316148015610b5a575b8015610b28575b6108de90610d94565b6001546000198114610a24576001818101808255600081815260208190526040902090815590810180546001600160a81b03191660043560ff1617600885901b610100600160a81b0316179055600281015490929061093c90610cff565b601f8111610ad5575b506000601f6044356004013511600114610a4a5760009060443560040135610a3a575b506044356004013560011b906000196044356004013560031b1c19161760028401555b4260038401556202a3004201804211610a24578381600460209601556007600582019160ff199283815416905501908154169055604051916109cf83600435610d5b565b6001600160a01b031682850152604082015260018201907f70e6266db08c6a1df94943e315da648e35b01394ea0c68068bc32225fe3db68e90606090a2610a193360018301610e70565b600160405191018152f35b634e487b7160e01b600052601160045260246000fd5b6024915060443501013584610968565b601f196044356004013516906002850160005260206000209160005b818110610ab857506044356004013511610a93575b5050600160443560040135811b01600284015561098b565b602460001960f86044356004013560031b161c19916044350101351690558380610a7b565b919260206001819260248760443501013581550194019201610a66565b600284016000526020600020601f604435600401350160051c810160206044356004013510610b21575b601f830160051c82018110610b15575050610945565b60008155600101610aff565b5080610aff565b50337f00000000000000000000000000000000000000000000000000000000000000006001600160a01b0316146108d5565b50337f00000000000000000000000000000000000000000000000000000000000000006001600160a01b0316146108ce565b346100d757602090816003193601126100d75760043560005260008252604060002080549160018482828501549260028601600091815491610bcd83610cff565b80865292828116908115610cdc5750600114610c9d575b505050610bf392500383610d39565b600383015492600481015460ff6007816005850154169301541692604051968752610c2388880160ff8316610d5b565b60081c6001600160a01b031660408701526101006060870181905284519087018190529360005b858110610c885750509085939291610120956000878688010152608086015260a0850152151560c084015260e0830152601f80199101168101030190f35b81810189015188820161012001528801610c4a565b600090815285812095935091905b818310610cc4575089945050820101610bf38980610be4565b85548884018501529485019487945091830191610cab565b92505050610bf394925060ff191682840152151560051b82010187928980610be4565b90600182811c92168015610d2f575b6020831014610d1957565b634e487b7160e01b600052602260045260246000fd5b91607f1691610d0e565b90601f8019910116810190811067ffffffffffffffff8211176106d657604052565b906005821015610d685752565b634e487b7160e01b600052602160045260246000fd5b602435906001600160a01b03821682036100d757565b15610d9b57565b60405162461bcd60e51b81526020600482015260156024820152742737ba1030baba3437b934bd32b21039b4b3b732b960591b6044820152606490fd5b15610ddf57565b60405162461bcd60e51b815260206004820152601760248201527f50726f706f73616c20646f6573206e6f742065786973740000000000000000006044820152606490fd5b15610e2b57565b60405162461bcd60e51b815260206004820152601960248201527f50726f706f73616c20616c7265616479206578656375746564000000000000006044820152606490fd5b6000818152806020526040812090610e8f60ff60058401541615610e24565b600682019360018060a01b0316938482528060205260ff604083205416610f2e578482526020526007604082209260ff1993600185825416179055019081549060ff82169060ff8214610f1a5750917fdc5e9abb618d111c833efbca916afcd5571e173ef114e412d52fd36571232291939160ff6001602095011692839116179055604051908152a3565b634e487b7160e01b81526011600452602490fd5b60405162461bcd60e51b815260206004820152601d60248201527f416c7265616479207369676e65642062792074686973207369676e65720000006044820152606490fdfea264697066735822122023387f26fdb9c8f4a8cbf7f40c660965acea0d62097c9c91e5c0392206ce56db64736f6c63430008140033",
  "linkReferences": {},
  "deployedLinkReferences": {}
}